{
  "contractName": "DemoNFT",
  "abi": [
    {
      "inputs": [],
      "stateMutability": "nonpayable",
      "type": "constructor"
    },
    {
      "inputs": [],
      "name": "ApprovalCallerNotOwnerNorApproved",
      "type": "error"
    },
    {
      "inputs": [],
      "name": "ApprovalQueryForNonexistentToken",
      "type": "error"
    },
    {
      "inputs": [],
      "name": "BalanceQueryForZeroAddress",
      "type": "error"
    },
    {
      "inputs": [],
      "name": "MintERC2309QuantityExceedsLimit",
      "type": "error"
    },
    {
      "inputs": [],
      "name": "MintToZeroAddress",
      "type": "error"
    },
    {
      "inputs": [],
      "name": "MintZeroQuantity",
      "type": "error"
    },
    {
      "inputs": [],
      "name": "OwnerQueryForNonexistentToken",
      "type": "error"
    },
    {
      "inputs": [],
      "name": "OwnershipNotInitializedForExtraData",
      "type": "error"
    },
    {
      "inputs": [],
      "name": "TransferCallerNotOwnerNorApproved",
      "type": "error"
    },
    {
      "inputs": [],
      "name": "TransferFromIncorrectOwner",
      "type": "error"
    },
    {
      "inputs": [],
      "name": "TransferToNonERC721ReceiverImplementer",
      "type": "error"
    },
    {
      "inputs": [],
      "name": "TransferToZeroAddress",
      "type": "error"
    },
    {
      "inputs": [],
      "name": "URIQueryForNonexistentToken",
      "type": "error"
    },
    {
      "anonymous": false,
      "inputs": [
        {
          "indexed": true,
          "internalType": "address",
          "name": "owner",
          "type": "address"
        },
        {
          "indexed": true,
          "internalType": "address",
          "name": "approved",
          "type": "address"
        },
        {
          "indexed": true,
          "internalType": "uint256",
          "name": "tokenId",
          "type": "uint256"
        }
      ],
      "name": "Approval",
      "type": "event"
    },
    {
      "anonymous": false,
      "inputs": [
        {
          "indexed": true,
          "internalType": "address",
          "name": "owner",
          "type": "address"
        },
        {
          "indexed": true,
          "internalType": "address",
          "name": "operator",
          "type": "address"
        },
        {
          "indexed": false,
          "internalType": "bool",
          "name": "approved",
          "type": "bool"
        }
      ],
      "name": "ApprovalForAll",
      "type": "event"
    },
    {
      "anonymous": false,
      "inputs": [
        {
          "indexed": true,
          "internalType": "uint256",
          "name": "fromTokenId",
          "type": "uint256"
        },
        {
          "indexed": false,
          "internalType": "uint256",
          "name": "toTokenId",
          "type": "uint256"
        },
        {
          "indexed": true,
          "internalType": "address",
          "name": "from",
          "type": "address"
        },
        {
          "indexed": true,
          "internalType": "address",
          "name": "to",
          "type": "address"
        }
      ],
      "name": "ConsecutiveTransfer",
      "type": "event"
    },
    {
      "anonymous": false,
      "inputs": [
        {
          "indexed": true,
          "internalType": "address",
          "name": "previousOwner",
          "type": "address"
        },
        {
          "indexed": true,
          "internalType": "address",
          "name": "newOwner",
          "type": "address"
        }
      ],
      "name": "OwnershipTransferred",
      "type": "event"
    },
    {
      "anonymous": false,
      "inputs": [
        {
          "indexed": true,
          "internalType": "address",
          "name": "from",
          "type": "address"
        },
        {
          "indexed": true,
          "internalType": "address",
          "name": "to",
          "type": "address"
        },
        {
          "indexed": true,
          "internalType": "uint256",
          "name": "tokenId",
          "type": "uint256"
        }
      ],
      "name": "Transfer",
      "type": "event"
    },
    {
      "inputs": [
        {
          "internalType": "address",
          "name": "to",
          "type": "address"
        },
        {
          "internalType": "uint256",
          "name": "tokenId",
          "type": "uint256"
        }
      ],
      "name": "approve",
      "outputs": [],
      "stateMutability": "payable",
      "type": "function",
      "payable": true
    },
    {
      "inputs": [
        {
          "internalType": "address",
          "name": "owner",
          "type": "address"
        }
      ],
      "name": "balanceOf",
      "outputs": [
        {
          "internalType": "uint256",
          "name": "",
          "type": "uint256"
        }
      ],
      "stateMutability": "view",
      "type": "function",
      "constant": true
    },
    {
      "inputs": [
        {
          "internalType": "uint256",
          "name": "tokenId",
          "type": "uint256"
        }
      ],
      "name": "getApproved",
      "outputs": [
        {
          "internalType": "address",
          "name": "",
          "type": "address"
        }
      ],
      "stateMutability": "view",
      "type": "function",
      "constant": true
    },
    {
      "inputs": [
        {
          "internalType": "address",
          "name": "owner",
          "type": "address"
        },
        {
          "internalType": "address",
          "name": "operator",
          "type": "address"
        }
      ],
      "name": "isApprovedForAll",
      "outputs": [
        {
          "internalType": "bool",
          "name": "",
          "type": "bool"
        }
      ],
      "stateMutability": "view",
      "type": "function",
      "constant": true
    },
    {
      "inputs": [],
      "name": "name",
      "outputs": [
        {
          "internalType": "string",
          "name": "",
          "type": "string"
        }
      ],
      "stateMutability": "view",
      "type": "function",
      "constant": true
    },
    {
      "inputs": [],
      "name": "owner",
      "outputs": [
        {
          "internalType": "address",
          "name": "",
          "type": "address"
        }
      ],
      "stateMutability": "view",
      "type": "function",
      "constant": true
    },
    {
      "inputs": [
        {
          "internalType": "uint256",
          "name": "tokenId",
          "type": "uint256"
        }
      ],
      "name": "ownerOf",
      "outputs": [
        {
          "internalType": "address",
          "name": "",
          "type": "address"
        }
      ],
      "stateMutability": "view",
      "type": "function",
      "constant": true
    },
    {
      "inputs": [],
      "name": "renounceOwnership",
      "outputs": [],
      "stateMutability": "nonpayable",
      "type": "function"
    },
    {
      "inputs": [
        {
          "internalType": "address",
          "name": "from",
          "type": "address"
        },
        {
          "internalType": "address",
          "name": "to",
          "type": "address"
        },
        {
          "internalType": "uint256",
          "name": "tokenId",
          "type": "uint256"
        }
      ],
      "name": "safeTransferFrom",
      "outputs": [],
      "stateMutability": "payable",
      "type": "function",
      "payable": true
    },
    {
      "inputs": [
        {
          "internalType": "address",
          "name": "from",
          "type": "address"
        },
        {
          "internalType": "address",
          "name": "to",
          "type": "address"
        },
        {
          "internalType": "uint256",
          "name": "tokenId",
          "type": "uint256"
        },
        {
          "internalType": "bytes",
          "name": "_data",
          "type": "bytes"
        }
      ],
      "name": "safeTransferFrom",
      "outputs": [],
      "stateMutability": "payable",
      "type": "function",
      "payable": true
    },
    {
      "inputs": [
        {
          "internalType": "address",
          "name": "operator",
          "type": "address"
        },
        {
          "internalType": "bool",
          "name": "approved",
          "type": "bool"
        }
      ],
      "name": "setApprovalForAll",
      "outputs": [],
      "stateMutability": "nonpayable",
      "type": "function"
    },
    {
      "inputs": [
        {
          "internalType": "bytes4",
          "name": "interfaceId",
          "type": "bytes4"
        }
      ],
      "name": "supportsInterface",
      "outputs": [
        {
          "internalType": "bool",
          "name": "",
          "type": "bool"
        }
      ],
      "stateMutability": "view",
      "type": "function",
      "constant": true
    },
    {
      "inputs": [],
      "name": "symbol",
      "outputs": [
        {
          "internalType": "string",
          "name": "",
          "type": "string"
        }
      ],
      "stateMutability": "view",
      "type": "function",
      "constant": true
    },
    {
      "inputs": [],
      "name": "totalSupply",
      "outputs": [
        {
          "internalType": "uint256",
          "name": "",
          "type": "uint256"
        }
      ],
      "stateMutability": "view",
      "type": "function",
      "constant": true
    },
    {
      "inputs": [
        {
          "internalType": "address",
          "name": "from",
          "type": "address"
        },
        {
          "internalType": "address",
          "name": "to",
          "type": "address"
        },
        {
          "internalType": "uint256",
          "name": "tokenId",
          "type": "uint256"
        }
      ],
      "name": "transferFrom",
      "outputs": [],
      "stateMutability": "payable",
      "type": "function",
      "payable": true
    },
    {
      "inputs": [
        {
          "internalType": "address",
          "name": "newOwner",
          "type": "address"
        }
      ],
      "name": "transferOwnership",
      "outputs": [],
      "stateMutability": "nonpayable",
      "type": "function"
    },
    {
      "inputs": [
        {
          "internalType": "uint256",
          "name": "quantity",
          "type": "uint256"
        }
      ],
      "name": "mint",
      "outputs": [],
      "stateMutability": "payable",
      "type": "function",
      "payable": true
    },
    {
      "inputs": [
        {
          "internalType": "uint256",
          "name": "tokenId",
          "type": "uint256"
        }
      ],
      "name": "tokenURI",
      "outputs": [
        {
          "internalType": "string",
          "name": "",
          "type": "string"
        }
      ],
      "stateMutability": "view",
      "type": "function",
      "constant": true
    }
  ],
  "bytecode": "0x60806040523480156200001157600080fd5b506040518060400160405280600881526020017f44454d4f204e46540000000000000000000000000000000000000000000000008152506040518060400160405280600781526020017f44454d4f4e46540000000000000000000000000000000000000000000000000081525081600290816200008f919062000435565b508060039081620000a1919062000435565b50620000b2620000e860201b60201c565b60008190555050506001600881905550620000e2620000d6620000ed60201b60201c565b620000f560201b60201c565b6200051c565b600090565b600033905090565b6000600960009054906101000a900473ffffffffffffffffffffffffffffffffffffffff16905081600960006101000a81548173ffffffffffffffffffffffffffffffffffffffff021916908373ffffffffffffffffffffffffffffffffffffffff1602179055508173ffffffffffffffffffffffffffffffffffffffff168173ffffffffffffffffffffffffffffffffffffffff167f8be0079c531659141344cd1fd0a4f28419497f9722a3daafe3b4186f6b6457e060405160405180910390a35050565b600081519050919050565b7f4e487b7100000000000000000000000000000000000000000000000000000000600052604160045260246000fd5b7f4e487b7100000000000000000000000000000000000000000000000000000000600052602260045260246000fd5b600060028204905060018216806200023d57607f821691505b602082108103620002535762000252620001f5565b5b50919050565b60008190508160005260206000209050919050565b60006020601f8301049050919050565b600082821b905092915050565b600060088302620002bd7fffffffffffffffffffffffffffffffffffffffffffffffffffffffffffffffff826200027e565b620002c986836200027e565b95508019841693508086168417925050509392505050565b6000819050919050565b6000819050919050565b600062000316620003106200030a84620002e1565b620002eb565b620002e1565b9050919050565b6000819050919050565b6200033283620002f5565b6200034a62000341826200031d565b8484546200028b565b825550505050565b600090565b6200036162000352565b6200036e81848462000327565b505050565b5b8181101562000396576200038a60008262000357565b60018101905062000374565b5050565b601f821115620003e557620003af8162000259565b620003ba846200026e565b81016020851015620003ca578190505b620003e2620003d9856200026e565b83018262000373565b50505b505050565b600082821c905092915050565b60006200040a60001984600802620003ea565b1980831691505092915050565b6000620004258383620003f7565b9150826002028217905092915050565b6200044082620001bb565b67ffffffffffffffff8111156200045c576200045b620001c6565b5b62000468825462000224565b620004758282856200039a565b600060209050601f831160018114620004ad576000841562000498578287015190505b620004a4858262000417565b86555062000514565b601f198416620004bd8662000259565b60005b82811015620004e757848901518255600182019150602085019450602081019050620004c0565b8683101562000507578489015162000503601f891682620003f7565b8355505b6001600288020188555050505b505050505050565b61234e806200052c6000396000f3fe6080604052600436106101095760003560e01c8063715018a611610095578063a22cb46511610064578063a22cb46514610335578063b88d4fde1461035e578063c87b56dd1461037a578063e985e9c5146103b7578063f2fde38b146103f457610109565b8063715018a6146102ac5780638da5cb5b146102c357806395d89b41146102ee578063a0712d681461031957610109565b806318160ddd116100dc57806318160ddd146101cf57806323b872dd146101fa57806342842e0e146102165780636352211e1461023257806370a082311461026f57610109565b806301ffc9a71461010e57806306fdde031461014b578063081812fc14610176578063095ea7b3146101b3575b600080fd5b34801561011a57600080fd5b506101356004803603810190610130919061180b565b61041d565b6040516101429190611853565b60405180910390f35b34801561015757600080fd5b506101606104af565b60405161016d91906118fe565b60405180910390f35b34801561018257600080fd5b5061019d60048036038101906101989190611956565b610541565b6040516101aa91906119c4565b60405180910390f35b6101cd60048036038101906101c89190611a0b565b6105c0565b005b3480156101db57600080fd5b506101e4610704565b6040516101f19190611a5a565b60405180910390f35b610214600480360381019061020f9190611a75565b61071b565b005b610230600480360381019061022b9190611a75565b610a3d565b005b34801561023e57600080fd5b5061025960048036038101906102549190611956565b610a5d565b60405161026691906119c4565b60405180910390f35b34801561027b57600080fd5b5061029660048036038101906102919190611ac8565b610a6f565b6040516102a39190611a5a565b60405180910390f35b3480156102b857600080fd5b506102c1610b27565b005b3480156102cf57600080fd5b506102d8610b3b565b6040516102e591906119c4565b60405180910390f35b3480156102fa57600080fd5b50610303610b65565b60405161031091906118fe565b60405180910390f35b610333600480360381019061032e9190611956565b610bf7565b005b34801561034157600080fd5b5061035c60048036038101906103579190611b21565b610c04565b005b61037860048036038101906103739190611c96565b610d0f565b005b34801561038657600080fd5b506103a1600480360381019061039c9190611956565b610d82565b6040516103ae91906118fe565b60405180910390f35b3480156103c357600080fd5b506103de60048036038101906103d99190611d19565b610dfb565b6040516103eb9190611853565b60405180910390f35b34801561040057600080fd5b5061041b60048036038101906104169190611ac8565b610e8f565b005b60006301ffc9a760e01b827bffffffffffffffffffffffffffffffffffffffffffffffffffffffff1916148061047857506380ac58cd60e01b827bffffffffffffffffffffffffffffffffffffffffffffffffffffffff1916145b806104a85750635b5e139f60e01b827bffffffffffffffffffffffffffffffffffffffffffffffffffffffff1916145b9050919050565b6060600280546104be90611d88565b80601f01602080910402602001604051908101604052809291908181526020018280546104ea90611d88565b80156105375780601f1061050c57610100808354040283529160200191610537565b820191906000526020600020905b81548152906001019060200180831161051a57829003601f168201915b5050505050905090565b600061054c82610f12565b610582576040517fcf4700e400000000000000000000000000000000000000000000000000000000815260040160405180910390fd5b6006600083815260200190815260200160002060000160009054906101000a900473ffffffffffffffffffffffffffffffffffffffff169050919050565b60006105cb82610a5d565b90508073ffffffffffffffffffffffffffffffffffffffff166105ec610f71565b73ffffffffffffffffffffffffffffffffffffffff161461064f5761061881610613610f71565b610dfb565b61064e576040517fcfb3b94200000000000000000000000000000000000000000000000000000000815260040160405180910390fd5b5b826006600084815260200190815260200160002060000160006101000a81548173ffffffffffffffffffffffffffffffffffffffff021916908373ffffffffffffffffffffffffffffffffffffffff160217905550818373ffffffffffffffffffffffffffffffffffffffff168273ffffffffffffffffffffffffffffffffffffffff167f8c5be1e5ebec7d5bd14f71427d1e84f3dd0314c0f7b2291e5b200ac8c7c3b92560405160405180910390a4505050565b600061070e610f79565b6001546000540303905090565b600061072682610f7e565b90508373ffffffffffffffffffffffffffffffffffffffff168173ffffffffffffffffffffffffffffffffffffffff161461078d576040517fa114810000000000000000000000000000000000000000000000000000000000815260040160405180910390fd5b6000806107998461104a565b915091506107af81876107aa610f71565b611071565b6107fb576107c4866107bf610f71565b610dfb565b6107fa576040517f59c896be00000000000000000000000000000000000000000000000000000000815260040160405180910390fd5b5b600073ffffffffffffffffffffffffffffffffffffffff168573ffffffffffffffffffffffffffffffffffffffff1603610861576040517fea553b3400000000000000000000000000000000000000000000000000000000815260040160405180910390fd5b61086e86868660016110b5565b801561087957600082555b600560008773ffffffffffffffffffffffffffffffffffffffff1673ffffffffffffffffffffffffffffffffffffffff168152602001908152602001600020600081546001900391905081905550600560008673ffffffffffffffffffffffffffffffffffffffff1673ffffffffffffffffffffffffffffffffffffffff1681526020019081526020016000206000815460010191905081905550610947856109238888876110bb565b7c0200000000000000000000000000000000000000000000000000000000176110e3565b600460008681526020019081526020016000208190555060007c02000000000000000000000000000000000000000000000000000000008416036109cd57600060018501905060006004600083815260200190815260200160002054036109cb5760005481146109ca578360046000838152602001908152602001600020819055505b5b505b838573ffffffffffffffffffffffffffffffffffffffff168773ffffffffffffffffffffffffffffffffffffffff167fddf252ad1be2c89b69c2b068fc378daa952ba7f163c4a11628f55a4df523b3ef60405160405180910390a4610a35868686600161110e565b505050505050565b610a5883838360405180602001604052806000815250610d0f565b505050565b6000610a6882610f7e565b9050919050565b60008073ffffffffffffffffffffffffffffffffffffffff168273ffffffffffffffffffffffffffffffffffffffff1603610ad6576040517f8f4eb60400000000000000000000000000000000000000000000000000000000815260040160405180910390fd5b67ffffffffffffffff600560008473ffffffffffffffffffffffffffffffffffffffff1673ffffffffffffffffffffffffffffffffffffffff16815260200190815260200160002054169050919050565b610b2f611114565b610b396000611192565b565b6000600960009054906101000a900473ffffffffffffffffffffffffffffffffffffffff16905090565b606060038054610b7490611d88565b80601f0160208091040260200160405190810160405280929190818152602001828054610ba090611d88565b8015610bed5780601f10610bc257610100808354040283529160200191610bed565b820191906000526020600020905b815481529060010190602001808311610bd057829003601f168201915b5050505050905090565b610c013382611258565b50565b8060076000610c11610f71565b73ffffffffffffffffffffffffffffffffffffffff1673ffffffffffffffffffffffffffffffffffffffff16815260200190815260200160002060008473ffffffffffffffffffffffffffffffffffffffff1673ffffffffffffffffffffffffffffffffffffffff16815260200190815260200160002060006101000a81548160ff0219169083151502179055508173ffffffffffffffffffffffffffffffffffffffff16610cbe610f71565b73ffffffffffffffffffffffffffffffffffffffff167f17307eab39ab6107e8899845ad3d59bd9653f200f220920489ca2b5937696c3183604051610d039190611853565b60405180910390a35050565b610d1a84848461071b565b60008373ffffffffffffffffffffffffffffffffffffffff163b14610d7c57610d4584848484611276565b610d7b576040517fd1a57ed600000000000000000000000000000000000000000000000000000000815260040160405180910390fd5b5b50505050565b6060610d8d82610f12565b610dcc576040517f08c379a0000000000000000000000000000000000000000000000000000000008152600401610dc390611e2b565b60405180910390fd5b610dd5826113c6565b604051602001610de59190611f6b565b6040516020818303038152906040529050919050565b6000600760008473ffffffffffffffffffffffffffffffffffffffff1673ffffffffffffffffffffffffffffffffffffffff16815260200190815260200160002060008373ffffffffffffffffffffffffffffffffffffffff1673ffffffffffffffffffffffffffffffffffffffff16815260200190815260200160002060009054906101000a900460ff16905092915050565b610e97611114565b600073ffffffffffffffffffffffffffffffffffffffff168173ffffffffffffffffffffffffffffffffffffffff1603610f06576040517f08c379a0000000000000000000000000000000000000000000000000000000008152600401610efd9061200a565b60405180910390fd5b610f0f81611192565b50565b600081610f1d610f79565b11158015610f2c575060005482105b8015610f6a575060007c0100000000000000000000000000000000000000000000000000000000600460008581526020019081526020016000205416145b9050919050565b600033905090565b600090565b60008082905080610f8d610f79565b11611013576000548110156110125760006004600083815260200190815260200160002054905060007c0100000000000000000000000000000000000000000000000000000000821603611010575b60008103611006576004600083600190039350838152602001908152602001600020549050610fdc565b8092505050611045565b505b5b6040517fdf2d9b4200000000000000000000000000000000000000000000000000000000815260040160405180910390fd5b919050565b60008060006006600085815260200190815260200160002090508092508254915050915091565b600073ffffffffffffffffffffffffffffffffffffffff8316925073ffffffffffffffffffffffffffffffffffffffff821691508382148383141790509392505050565b50505050565b60008060e883901c905060e86110d2868684611526565b62ffffff16901b9150509392505050565b600073ffffffffffffffffffffffffffffffffffffffff83169250814260a01b178317905092915050565b50505050565b61111c61152f565b73ffffffffffffffffffffffffffffffffffffffff1661113a610b3b565b73ffffffffffffffffffffffffffffffffffffffff1614611190576040517f08c379a000000000000000000000000000000000000000000000000000000000815260040161118790612076565b60405180910390fd5b565b6000600960009054906101000a900473ffffffffffffffffffffffffffffffffffffffff16905081600960006101000a81548173ffffffffffffffffffffffffffffffffffffffff021916908373ffffffffffffffffffffffffffffffffffffffff1602179055508173ffffffffffffffffffffffffffffffffffffffff168173ffffffffffffffffffffffffffffffffffffffff167f8be0079c531659141344cd1fd0a4f28419497f9722a3daafe3b4186f6b6457e060405160405180910390a35050565b611272828260405180602001604052806000815250611537565b5050565b60008373ffffffffffffffffffffffffffffffffffffffff1663150b7a0261129c610f71565b8786866040518563ffffffff1660e01b81526004016112be94939291906120eb565b6020604051808303816000875af19250505080156112fa57506040513d601f19601f820116820180604052508101906112f7919061214c565b60015b611373573d806000811461132a576040519150601f19603f3d011682016040523d82523d6000602084013e61132f565b606091505b50600081510361136b576040517fd1a57ed600000000000000000000000000000000000000000000000000000000815260040160405180910390fd5b805181602001fd5b63150b7a0260e01b7bffffffffffffffffffffffffffffffffffffffffffffffffffffffff1916817bffffffffffffffffffffffffffffffffffffffffffffffffffffffff191614915050949350505050565b60606000820361140d576040518060400160405280600181526020017f30000000000000000000000000000000000000000000000000000000000000008152509050611521565b600082905060005b6000821461143f578080611428906121a8565b915050600a82611438919061221f565b9150611415565b60008167ffffffffffffffff81111561145b5761145a611b6b565b5b6040519080825280601f01601f19166020018201604052801561148d5781602001600182028036833780820191505090505b5090505b6000851461151a576001826114a69190612250565b9150600a856114b59190612284565b60306114c191906122b5565b60f81b8183815181106114d7576114d66122e9565b5b60200101907effffffffffffffffffffffffffffffffffffffffffffffffffffffffffffff1916908160001a905350600a85611513919061221f565b9450611491565b8093505050505b919050565b60009392505050565b600033905090565b61154183836115d4565b60008373ffffffffffffffffffffffffffffffffffffffff163b146115cf57600080549050600083820390505b6115816000868380600101945086611276565b6115b7576040517fd1a57ed600000000000000000000000000000000000000000000000000000000815260040160405180910390fd5b81811061156e5781600054146115cc57600080fd5b50505b505050565b60008054905060008203611614576040517fb562e8dd00000000000000000000000000000000000000000000000000000000815260040160405180910390fd5b61162160008483856110b5565b600160406001901b178202600560008573ffffffffffffffffffffffffffffffffffffffff1673ffffffffffffffffffffffffffffffffffffffff168152602001908152602001600020600082825401925050819055506116988361168960008660006110bb565b6116928561178f565b176110e3565b6004600083815260200190815260200160002081905550600080838301905073ffffffffffffffffffffffffffffffffffffffff85169150828260007fddf252ad1be2c89b69c2b068fc378daa952ba7f163c4a11628f55a4df523b3ef600080a4600183015b81811461173957808360007fddf252ad1be2c89b69c2b068fc378daa952ba7f163c4a11628f55a4df523b3ef600080a46001810190506116fe565b5060008203611774576040517f2e07630000000000000000000000000000000000000000000000000000000000815260040160405180910390fd5b80600081905550505061178a600084838561110e565b505050565b60006001821460e11b9050919050565b6000604051905090565b600080fd5b600080fd5b60007fffffffff0000000000000000000000000000000000000000000000000000000082169050919050565b6117e8816117b3565b81146117f357600080fd5b50565b600081359050611805816117df565b92915050565b600060208284031215611821576118206117a9565b5b600061182f848285016117f6565b91505092915050565b60008115159050919050565b61184d81611838565b82525050565b60006020820190506118686000830184611844565b92915050565b600081519050919050565b600082825260208201905092915050565b60005b838110156118a857808201518184015260208101905061188d565b60008484015250505050565b6000601f19601f8301169050919050565b60006118d08261186e565b6118da8185611879565b93506118ea81856020860161188a565b6118f3816118b4565b840191505092915050565b6000602082019050818103600083015261191881846118c5565b905092915050565b6000819050919050565b61193381611920565b811461193e57600080fd5b50565b6000813590506119508161192a565b92915050565b60006020828403121561196c5761196b6117a9565b5b600061197a84828501611941565b91505092915050565b600073ffffffffffffffffffffffffffffffffffffffff82169050919050565b60006119ae82611983565b9050919050565b6119be816119a3565b82525050565b60006020820190506119d960008301846119b5565b92915050565b6119e8816119a3565b81146119f357600080fd5b50565b600081359050611a05816119df565b92915050565b60008060408385031215611a2257611a216117a9565b5b6000611a30858286016119f6565b9250506020611a4185828601611941565b9150509250929050565b611a5481611920565b82525050565b6000602082019050611a6f6000830184611a4b565b92915050565b600080600060608486031215611a8e57611a8d6117a9565b5b6000611a9c868287016119f6565b9350506020611aad868287016119f6565b9250506040611abe86828701611941565b9150509250925092565b600060208284031215611ade57611add6117a9565b5b6000611aec848285016119f6565b91505092915050565b611afe81611838565b8114611b0957600080fd5b50565b600081359050611b1b81611af5565b92915050565b60008060408385031215611b3857611b376117a9565b5b6000611b46858286016119f6565b9250506020611b5785828601611b0c565b9150509250929050565b600080fd5b600080fd5b7f4e487b7100000000000000000000000000000000000000000000000000000000600052604160045260246000fd5b611ba3826118b4565b810181811067ffffffffffffffff82111715611bc257611bc1611b6b565b5b80604052505050565b6000611bd561179f565b9050611be18282611b9a565b919050565b600067ffffffffffffffff821115611c0157611c00611b6b565b5b611c0a826118b4565b9050602081019050919050565b82818337600083830152505050565b6000611c39611c3484611be6565b611bcb565b905082815260208101848484011115611c5557611c54611b66565b5b611c60848285611c17565b509392505050565b600082601f830112611c7d57611c7c611b61565b5b8135611c8d848260208601611c26565b91505092915050565b60008060008060808587031215611cb057611caf6117a9565b5b6000611cbe878288016119f6565b9450506020611ccf878288016119f6565b9350506040611ce087828801611941565b925050606085013567ffffffffffffffff811115611d0157611d006117ae565b5b611d0d87828801611c68565b91505092959194509250565b60008060408385031215611d3057611d2f6117a9565b5b6000611d3e858286016119f6565b9250506020611d4f858286016119f6565b9150509250929050565b7f4e487b7100000000000000000000000000000000000000000000000000000000600052602260045260246000fd5b60006002820490506001821680611da057607f821691505b602082108103611db357611db2611d59565b5b50919050565b7f4d794552433732313a2055524920717565727920666f72206e6f6e657869737460008201527f656e7420746f6b656e0000000000000000000000000000000000000000000000602082015250565b6000611e15602983611879565b9150611e2082611db9565b604082019050919050565b60006020820190508181036000830152611e4481611e08565b9050919050565b600081905092915050565b7f68747470733a2f2f7261772e67697468756275736572636f6e74656e742e636f60008201527f6d2f3078666666616e67656c2f64656d6f6e66742f6d61737465722f6173736560208201527f74732f0000000000000000000000000000000000000000000000000000000000604082015250565b6000611ed8604383611e4b565b9150611ee382611e56565b604382019050919050565b6000611ef98261186e565b611f038185611e4b565b9350611f1381856020860161188a565b80840191505092915050565b7f2e6a736f6e000000000000000000000000000000000000000000000000000000600082015250565b6000611f55600583611e4b565b9150611f6082611f1f565b600582019050919050565b6000611f7682611ecb565b9150611f828284611eee565b9150611f8d82611f48565b915081905092915050565b7f4f776e61626c653a206e6577206f776e657220697320746865207a65726f206160008201527f6464726573730000000000000000000000000000000000000000000000000000602082015250565b6000611ff4602683611879565b9150611fff82611f98565b604082019050919050565b6000602082019050818103600083015261202381611fe7565b9050919050565b7f4f776e61626c653a2063616c6c6572206973206e6f7420746865206f776e6572600082015250565b6000612060602083611879565b915061206b8261202a565b602082019050919050565b6000602082019050818103600083015261208f81612053565b9050919050565b600081519050919050565b600082825260208201905092915050565b60006120bd82612096565b6120c781856120a1565b93506120d781856020860161188a565b6120e0816118b4565b840191505092915050565b600060808201905061210060008301876119b5565b61210d60208301866119b5565b61211a6040830185611a4b565b818103606083015261212c81846120b2565b905095945050505050565b600081519050612146816117df565b92915050565b600060208284031215612162576121616117a9565b5b600061217084828501612137565b91505092915050565b7f4e487b7100000000000000000000000000000000000000000000000000000000600052601160045260246000fd5b60006121b382611920565b91507fffffffffffffffffffffffffffffffffffffffffffffffffffffffffffffffff82036121e5576121e4612179565b5b600182019050919050565b7f4e487b7100000000000000000000000000000000000000000000000000000000600052601260045260246000fd5b600061222a82611920565b915061223583611920565b925082612245576122446121f0565b5b828204905092915050565b600061225b82611920565b915061226683611920565b925082820390508181111561227e5761227d612179565b5b92915050565b600061228f82611920565b915061229a83611920565b9250826122aa576122a96121f0565b5b828206905092915050565b60006122c082611920565b91506122cb83611920565b92508282019050808211156122e3576122e2612179565b5b92915050565b7f4e487b7100000000000000000000000000000000000000000000000000000000600052603260045260246000fdfea264697066735822122049b57689a4d5601c0d050bc6fc0837c616a3192757a1dc0a8e7a5d0dd5c4b7a164736f6c63430008110033",
  "immutableReferences": {},
  "source": "// SPDX-License-Identifier: MIT  \npragma solidity ^0.8.9;\n  \nimport \"erc721a/contracts/ERC721A.sol\";  \nimport \"@openzeppelin/contracts/access/Ownable.sol\";\nimport \"@openzeppelin/contracts/security/ReentrancyGuard.sol\";\nimport \"@openzeppelin/contracts/utils/Strings.sol\";\n\ncontract DemoNFT is ERC721A, ReentrancyGuard, Ownable {  \n    constructor() \n        ERC721A(\"DEMO NFT\", \"DEMONFT\") Ownable() {} \n  \n    function mint(uint256 quantity) external payable {  \n        // _safeMint's second argument now takes in a quantity, not a tokenId.  \n        _safeMint(msg.sender, quantity);  \n    }  \n\n    function tokenURI(uint256 tokenId) public view virtual override returns (string memory) {\n        require(_exists(tokenId), \"MyERC721: URI query for nonexistent token\");\n        return string(abi.encodePacked(\"https://raw.githubusercontent.com/0xfffangel/demonft/master/assets/\", Strings.toString(tokenId), \".json\"));\n    }\n}",
  "sourcePath": "/home/angel/0xfffangel/DemoNFT/contracts/DemoNFT.sol",
  "compiler": {
    "name": "solc",
    "version": "0.8.17+commit.8df45f5f.Emscripten.clang"
  },
  "schemaVersion": "3.4.10",
  "updatedAt": "2022-10-20T03:33:49.830Z",
  "networkType": "ethereum",
  "devdoc": {
    "kind": "dev",
    "methods": {
      "approve(address,uint256)": {
        "details": "Gives permission to `to` to transfer `tokenId` token to another account. The approval is cleared when the token is transferred. Only a single account can be approved at a time, so approving the zero address clears previous approvals. Requirements: - The caller must own the token or be an approved operator. - `tokenId` must exist. Emits an {Approval} event."
      },
      "balanceOf(address)": {
        "details": "Returns the number of tokens in `owner`'s account."
      },
      "getApproved(uint256)": {
        "details": "Returns the account approved for `tokenId` token. Requirements: - `tokenId` must exist."
      },
      "isApprovedForAll(address,address)": {
        "details": "Returns if the `operator` is allowed to manage all of the assets of `owner`. See {setApprovalForAll}."
      },
      "name()": {
        "details": "Returns the token collection name."
      },
      "owner()": {
        "details": "Returns the address of the current owner."
      },
      "ownerOf(uint256)": {
        "details": "Returns the owner of the `tokenId` token. Requirements: - `tokenId` must exist."
      },
      "renounceOwnership()": {
        "details": "Leaves the contract without owner. It will not be possible to call `onlyOwner` functions anymore. Can only be called by the current owner. NOTE: Renouncing ownership will leave the contract without an owner, thereby removing any functionality that is only available to the owner."
      },
      "safeTransferFrom(address,address,uint256)": {
        "details": "Equivalent to `safeTransferFrom(from, to, tokenId, '')`."
      },
      "safeTransferFrom(address,address,uint256,bytes)": {
        "details": "Safely transfers `tokenId` token from `from` to `to`. Requirements: - `from` cannot be the zero address. - `to` cannot be the zero address. - `tokenId` token must exist and be owned by `from`. - If the caller is not `from`, it must be approved to move this token by either {approve} or {setApprovalForAll}. - If `to` refers to a smart contract, it must implement {IERC721Receiver-onERC721Received}, which is called upon a safe transfer. Emits a {Transfer} event."
      },
      "setApprovalForAll(address,bool)": {
        "details": "Approve or remove `operator` as an operator for the caller. Operators can call {transferFrom} or {safeTransferFrom} for any token owned by the caller. Requirements: - The `operator` cannot be the caller. Emits an {ApprovalForAll} event."
      },
      "supportsInterface(bytes4)": {
        "details": "Returns true if this contract implements the interface defined by `interfaceId`. See the corresponding [EIP section](https://eips.ethereum.org/EIPS/eip-165#how-interfaces-are-identified) to learn more about how these ids are created. This function call must use less than 30000 gas."
      },
      "symbol()": {
        "details": "Returns the token collection symbol."
      },
      "tokenURI(uint256)": {
        "details": "Returns the Uniform Resource Identifier (URI) for `tokenId` token."
      },
      "totalSupply()": {
        "details": "Returns the total number of tokens in existence. Burned tokens will reduce the count. To get the total number of tokens minted, please see {_totalMinted}."
      },
      "transferFrom(address,address,uint256)": {
        "details": "Transfers `tokenId` from `from` to `to`. Requirements: - `from` cannot be the zero address. - `to` cannot be the zero address. - `tokenId` token must be owned by `from`. - If the caller is not `from`, it must be approved to move this token by either {approve} or {setApprovalForAll}. Emits a {Transfer} event."
      },
      "transferOwnership(address)": {
        "details": "Transfers ownership of the contract to a new account (`newOwner`). Can only be called by the current owner."
      }
    },
    "version": 1
  },
  "userdoc": {
    "errors": {
      "ApprovalCallerNotOwnerNorApproved()": [
        {
          "notice": "The caller must own the token or be an approved operator."
        }
      ],
      "ApprovalQueryForNonexistentToken()": [
        {
          "notice": "The token does not exist."
        }
      ],
      "BalanceQueryForZeroAddress()": [
        {
          "notice": "Cannot query the balance for the zero address."
        }
      ],
      "MintERC2309QuantityExceedsLimit()": [
        {
          "notice": "The `quantity` minted with ERC2309 exceeds the safety limit."
        }
      ],
      "MintToZeroAddress()": [
        {
          "notice": "Cannot mint to the zero address."
        }
      ],
      "MintZeroQuantity()": [
        {
          "notice": "The quantity of tokens minted must be more than zero."
        }
      ],
      "OwnerQueryForNonexistentToken()": [
        {
          "notice": "The token does not exist."
        }
      ],
      "OwnershipNotInitializedForExtraData()": [
        {
          "notice": "The `extraData` cannot be set on an unintialized ownership slot."
        }
      ],
      "TransferCallerNotOwnerNorApproved()": [
        {
          "notice": "The caller must own the token or be an approved operator."
        }
      ],
      "TransferFromIncorrectOwner()": [
        {
          "notice": "The token must be owned by `from`."
        }
      ],
      "TransferToNonERC721ReceiverImplementer()": [
        {
          "notice": "Cannot safely transfer to a contract that does not implement the ERC721Receiver interface."
        }
      ],
      "TransferToZeroAddress()": [
        {
          "notice": "Cannot transfer to the zero address."
        }
      ],
      "URIQueryForNonexistentToken()": [
        {
          "notice": "The token does not exist."
        }
      ]
    },
    "kind": "user",
    "methods": {},
    "version": 1
  }
}